:100000000C9418010C9449010C9449010C94490179
:100010000C9449010C9449010C9449010C94490138
:100020000C9449010C9449010C9449010C94490128
:100030000C9449010C9449010C9449010C94490118
:100040000C9449010C9449010C9449010C94490108
:100050000C9449010C9449010C9449010C949407A7
:100060000C9449010C9430020C9420030C94490127
:100070000C9449010C9449010C9449010C944901D8
:100080000C9449010C9449010C9449010C944901C8
:100090000C9464020C945F030C9449010C94490184
:1000A0000C9449010C9449010C9449010C944901A8
:1000B0000C9449010C9449010C9449010C94490198
:1000C0000C9449010C9449010C9449010C94980238
:1000D0000C949E030C9449010C94CC020C94DD0307
:1000E0000C9449013306360629062D066D063A069C
:1000F0003E06440648064C06520656065A066D064B
:10010000600664066806FE060307080712078B07E9
:100110001C0724072C07360740074A0759076307BF
:100120008B076D07770781070000090A02080B0C8F
:100130000D0706030401000000000000000000009D
:1001400000000000000000000000000000000000AF
:100150000000000011100F0000000000000000006F
:10016000000000000000000000000000000001028C
:1001700010202008081020401020408002010201B9
:100180000804020101020408102040808040201071
:1001900008040201800402018040201008040201CA
:1001A0000804020101020408102040800102040832
:1001B000102040800505050507050808080802020B
:1001C00002020A0A080804040404010101010101F1
:1001D00001010303030303030303040707070C0CD4
:1001E0000C0C0C0C0C0C020202020606060606069B
:1001F00006060B0B0B0B0B0B0B0B00002200250054
:1002000028002B002E0031003400020100000501FF
:1002100008010B0100002100240027002A002D0006
:100220003000330001010000040107010A019D04B0
:1002300011241FBECFEFD1E2DEBFCDBF00E00CBF67
:1002400012E0A0E0B2E0EAEEF1E100E00BBF02C094
:1002500007900D92A631B107D9F714E0A6E1B2E0FC
:1002600001C01D92A73CB107E1F712E0C0E3D2E064
:1002700000E006C022970109FE010BBF0E94EF08B3
:10028000CE32D10780E00807A9F70E94D3050C946D
:10029000F3080C94000040E855E260E070E08CE761
:1002A00092E00E941C0461E083E00E946E0661E01F
:1002B00085E00E946E06089562E370E083E00E948C
:1002C000DA0660E070E085E00E94DA0662E383E02F
:1002D0000E94A60660E085E00E94A60660E072E04B
:1002E0008CE792E00E941B066AE070E080E090E0FC
:1002F0000E9408080895FC0184859585FC01E05C56
:10030000FF4F20813181FC01EE5BFF4F80819181A5
:10031000281B390B2F733327C9010895FC018485ED
:100320009585FC01E05CFF4F40815181FC01EE5B53
:10033000FF4F208131814217530741F00190F08136
:10034000E02DE80FF91F208130E002C02FEF3FEFD2
:10035000C9010895FC0184859585FC01E05CFF4F8F
:1003600040815181FC01EE5BFF4F208131814217BA
:10037000530781F0A081B181A80FB91F8C91208112
:1003800031812F5F3F4F2F73332731832083282FF5
:1003900030E002C02FEF3FEFC9010895FC0181A1B9
:1003A000882329F0A489B5898C9186FFFBCF11A2FF
:1003B0000895CF93DF93FC0126853785D901A05C92
:1003C000BF4F8D919C91119701968F739927E901E9
:1003D000CE5BDF4F4881598184179507D9F30D9083
:1003E000BC91A02DA20FB31F6C93A685B785A05C0E
:1003F000BF4F11969C938E93A689B7892C9181E06B
:1004000090E0078C02C0880F991F0A94E2F7282B0E
:100410002C9381E081A30488F589E02D808180649C
:10042000808381E090E0DF91CF910895FB01E05C53
:10043000FF4F208131812F5F3F4F2F733327DB0127
:10044000AE5BBF4F4D915C912417350739F0A08109
:10045000B181A60FB71F8C9331832083089508952F
:100460001F920F920FB60F9211240BB60F922F937B
:100470003F934F935F936F937F938F939F93AF932C
:10048000BF93EF93FF938091C00082FD07C08091DE
:10049000C6006AE774E00E94160202C08091C6009E
:1004A000FF91EF91BF91AF919F918F917F916F914C
:1004B0005F914F913F912F910F900BBE0F900FBE08
:1004C0000F901F90189508951F920F920FB60F92DC
:1004D00011240BB60F922F933F934F935F936F931B
:1004E0007F938F939F93AF93BF93EF93FF938091ED
:1004F000C80082FD07C08091CE0062EF73E00E94C9
:10050000160202C08091CE00FF91EF91BF91AF9192
:100510009F918F917F916F915F914F913F912F911B
:100520000F900BBE0F900FBE0F901F90189508955F
:100530001F920F920FB60F9211240BB60F922F93AA
:100540003F934F935F936F937F938F939F93AF935B
:10055000BF93EF93FF938091D00082FD07C08091FD
:10056000D6006AE673E00E94160202C08091D600AF
:10057000FF91EF91BF91AF919F918F917F916F917B
:100580005F914F913F912F910F900BBE0F900FBE37
:100590000F901F90189508951F920F920FB60F920B
:1005A00011240BB60F922F933F934F935F936F934A
:1005B0007F938F939F93AF93BF93EF93FF9380911C
:1005C000300182FD07C08091360162EE72E00E9428
:1005D000160202C080913601FF91EF91BF91AF9159
:1005E0009F918F917F916F915F914F913F912F914B
:1005F0000F900BBE0F900FBE0F901F9018958CE7B9
:1006000092E00E947B01892B11F00E942F028AE563
:1006100092E00E947B01892B11F00E94630288E323
:1006200092E00E947B01892B11F00E94970286E1E3
:1006300092E00E947B01892B11F00E94CB02089569
:100640001F920F920FB60F9211240BB60F922F9399
:100650003F938F939F93EF93FF9320917604309174
:10066000770480917804909179042817390731F440
:100670008091C1008F7D8093C10014C0E091780407
:10068000F0917904EA5CFB4F20818091780490918D
:10069000790401968F739927909379048093780455
:1006A0002093C600FF91EF919F918F913F912F91E1
:1006B0000F900BBE0F900FBE0F901F9018951F92BA
:1006C0000F920FB60F9211240BB60F922F933F93F8
:1006D0008F939F93EF93FF932091EE033091EF035D
:1006E0008091F0039091F1032817390731F480913C
:1006F000C9008F7D8093C90014C0E091F003F09190
:10070000F103E255FC4F20818091F0039091F103B9
:1007100001968F7399279093F1038093F0032093B0
:10072000CE00FF91EF919F918F913F912F910F906C
:100730000BBE0F900FBE0F901F9018951F920F9237
:100740000FB60F9211240BB60F922F933F938F93F6
:100750009F93EF93FF9320916603309167038091FD
:100760006803909169032817390731F48091D1000B
:100770008F7D8093D10014C0E0916803F0916903EC
:10078000EA5DFC4F20818091680390916903019696
:100790008F73992790936903809368032093D60001
:1007A000FF91EF919F918F913F912F910F900BBEF1
:1007B0000F900FBE0F901F9018951F920F920FB6BB
:1007C0000F9211240BB60F922F933F938F939F9309
:1007D000EF93FF932091DE023091DF028091E002DF
:1007E0009091E1022817390731F4809131018F7D12
:1007F0008093310114C0E091E002F091E102E256F1
:10080000FD4F20818091E0029091E10201968F736B
:1008100099279093E1028093E00220933601FF91A3
:10082000EF919F918F913F912F910F900BBE0F9061
:100830000FBE0F901F901895CF92DF92EF92FF920C
:10084000CF93DF93EC016A017B01411581EE5807DC
:1008500061057105F9F0EC89FD8981E090E008A05F
:1008600002C0880F991F0A94E2F7808360E079E064
:100870008DE390E0A70196010E9490082150310974
:10088000410951095695479537952795211580E1DE
:10089000380798F0EC89FD89108260E874E88EE1F1
:1008A00090E0A70196010E9490082150310941096A
:1008B00051095695479537952795E889F9893083E9
:1008C000EA89FB89208319A2EE89FF89408181E0B2
:1008D00090E09C010C8C02C0220F331F0A94E2F7B7
:1008E000422B4083EE89FF8940819C010D8C02C020
:1008F000220F331F0A94E2F7422B4083EE89FF89CF
:1009000040819C010E8C02C0220F331F0A94E2F733
:10091000422B4083EE89FF8920810F8C02C0880F13
:10092000991F0A94E2F7809582238083DF91CF910B
:10093000FF90EF90DF90CF900895CF9310927F02B9
:1009400010927E0288EE93E0A0E0B0E080938002F7
:1009500090938102A0938202B093830229E032E057
:1009600030937D0220937C024AE754E05093890241
:100970004093880246E354E050938B0240938A02EE
:1009800045EC50E050938D0240938C0244EC50E0D3
:1009900050938F0240938E0240EC50E050939102AE
:1009A0004093900241EC50E05093930240939202A6
:1009B00042EC50E0509395024093940246EC50E094
:1009C0005093970240939602C4E0C0939802F3E0DC
:1009D000F0939902E7E0E0939A0275E070939B022E
:1009E00061E060939C0210925D0210925C02809321
:1009F0005E0290935F02A0936002B0936102309315
:100A00005B0220935A0242EF53E0509367024093F7
:100A100066024EEA53E050936902409368024DEC3F
:100A200050E050936B0240936A024CEC50E05093BC
:100A30006D0240936C0248EC50E050936F0240937B
:100A40006E0249EC50E050937102409370024AEC00
:100A500050E050937302409372024EEC50E050937A
:100A6000750240937402C0937602F0937702E0938C
:100A700078027093790260937A0210923B0210928E
:100A80003A0280933C0290933D02A0933E02B093C1
:100A90003F0230933902209338024AE653E05093E4
:100AA00045024093440246E253E05093470240938C
:100AB000460245ED50E0509349024093480244ED10
:100AC00050E050934B0240934A0240ED50E0509367
:100AD0004D0240934C0241ED50E050934F02409341
:100AE0004E0242ED50E0509351024093500246EDC9
:100AF00050E05093530240935202C0935402F0933B
:100B00005502E09356027093570260935802109278
:100B100019021092180280931A0290931B02A0935C
:100B20001C02B0931D02309317022093160282EE2E
:100B300092E090932302809322028EE992E09093B8
:100B400025028093240285E391E09093270280930D
:100B5000260284E391E0909329028093280280E3A7
:100B600091E090932B0280932A0281E391E090938D
:100B70002D0280932C0282E391E090932F028093C8
:100B80002E0286E391E09093310280933002C0936D
:100B90003202F0933302E093340270933502609393
:100BA0003602CF9108950E942E080E944B01CFEF8C
:100BB000D2E00E945C012097E1F30E94FF02F9CF8E
:100BC000A0E0B0E0E6EEF5E00C94BC086C01EB01AF
:100BD0007A01E60EF71E00E010E00BC06991D60125
:100BE000ED91FC910190F081E02DC6011995080F5F
:100BF000191FCE15DF0591F7C801CDB7DEB7E8E0C4
:100C00000C94D8086115710591F0DB010D9000205E
:100C1000E9F7AD0141505109461B570BDC01ED913D
:100C2000FC910280F381E02D19959C0102C020E027
:100C300030E0C90108950E940206089590E0FC0189
:100C40003197E131F10508F048C0EE58FF4F0C94A0
:100C5000E908809180008F7703C0809180008F7DAC
:100C600080938000089584B58F7702C084B58F7D0E
:100C700084BD08958091B0008F7703C08091B0004B
:100C80008F7D8093B0000895809190008F7707C08A
:100C9000809190008F7D03C080919000877F80932A
:100CA000900008958091A0008F7707C08091A000E8
:100CB0008F7D03C08091A000877F8093A00008955E
:100CC000809120018F7707C0809120018F7D03C024
:100CD00080912001877F809320010895CF93DF9337
:100CE00090E0FC01E259FE4F4491FC01EC54FE4FB0
:100CF0008491882341F190E0880F991FFC01EC5EFC
:100D0000FD4F25913491D90186509E4FFC0185916C
:100D10009491C82FD92F9FB7F8948C91611106C078
:100D2000409584238C938881842308C0623041F4E9
:100D3000242F209582238C938881842B888302C062
:100D4000842B8C939FBFDF91CF910895A1E0B0E0F9
:100D5000ECEAF6E00C94C008282F30E0F901E85DD9
:100D6000FE4F8491F901E259FE4F1491F901EC54C0
:100D7000FE4F04910023D1F0882321F069830E9463
:100D80001E066981E02FF0E0EE0FFF1FE650FE4FD8
:100D900085919491DC019FB7F8948C91611103C007
:100DA0001095812301C0812B8C939FBF2196E4E095
:100DB0000C94DC081F93CF93DF93182FEB0161E0B5
:100DC0000E946E06209711F460E004C0CF3FD10569
:100DD00029F461E0812F0E94A606A2C0E12FF0E075
:100DE000E85DFE4F449150E0FA013197E131F105A1
:100DF00008F091C0ED57FF4F0C94E90884B5806866
:100E000084BDC7BD8DC084B5806284BDC8BD88C0A7
:100E100080918000806880938000D0938900C09387
:100E200088007EC080918000806280938000D09393
:100E30008B00C0938A0074C08091B000806880935A
:100E4000B000C093B3006CC08091B000806280930A
:100E5000B000C093B40064C080919000806880931B
:100E60009000D0939900C09398005AC08091900050
:100E7000806280939000D0939B00C0939A0050C0F2
:100E800080919000886080939000D0939D00C093E3
:100E90009C0046C08091A00080688093A000809153
:100EA000A0008F7B8093A000D093A900C093A800DE
:100EB00037C08091A00080628093A000D093AB00E7
:100EC000C093AA002DC08091A00088608093A000EC
:100ED000D093AD00C093AC0023C080912001806806
:100EE00080932001D0932901C093280119C08091DB
:100EF0002001806280932001D0932B01C0932A01AE
:100F00000FC080912001886080932001D0932D0133
:100F1000C0932C0105C0C038D1050CF05ACF54CF76
:100F2000DF91CF911F9108951F920F920FB60F92EC
:100F300011242F933F938F939F93AF93BF938091EF
:100F4000BE049091BF04A091C004B091C10430913F
:100F5000C604232F2D5F2D3720F40196A11DB11D4E
:100F600005C0232F2A570296A11DB11D2093C60448
:100F70008093BE049093BF04A093C004B093C104B7
:100F80008091C2049091C304A091C404B091C5049F
:100F90000196A11DB11D8093C2049093C304A09338
:100FA000C404B093C504BF91AF919F918F913F91BD
:100FB0002F910F900FBE0F901F9018950F931F93B6
:100FC0009FB7F8940091C2041091C3042091C40407
:100FD0003091C50486B5A89B06C08F3F21F00F5FF6
:100FE0001F4F2F4F3F4F9FBF322F212F102F002712
:100FF000080F111D211D311D42E0000F111F221F7E
:10100000331F4A95D1F7B801C9011F910F91089577
:10101000CF92DF92EF92FF92CF93DF936B017C012F
:101020000E94DE07EB010EC00E94DE076C1B7D0BE9
:10103000683E734038F081E0C81AD108E108F10831
:10104000C851DC4FC114D104E104F10469F7DF9108
:10105000CF91FF90EF90DF90CF900895789484B572
:10106000826084BD84B5816084BD85B5826085BDA4
:1010700085B5816085BDEEE6F0E08081816080838A
:10108000E1E8F0E01082808182608083808181606D
:101090008083E0E8F0E0808181608083E1EBF0E034
:1010A000808184608083E0EBF0E0808181608083D8
:1010B000E1E9F0E0808182608083808181608083CB
:1010C000E0E9F0E0808181608083E1EAF0E0808106
:1010D00082608083808181608083E0EAF0E08081AB
:1010E00081608083E1E2F1E08081826080838081A1
:1010F00081608083E0E2F1E0808181608083EAE7C3
:10110000F0E0808184608083808182608083808140
:10111000816080838081806880831092C1000895FF
:10112000A1E21A2EAA1BBB1BFD010DC0AA1FBB1FEB
:10113000EE1FFF1FA217B307E407F50720F0A21B5D
:10114000B30BE40BF50B661F771F881F991F1A94CA
:1011500069F760957095809590959B01AC01BD01F4
:10116000CF0108952F923F924F925F926F927F929C
:101170008F929F92AF92BF92CF92DF92EF92FF92A7
:101180000F931F93CF93DF93CDB7DEB7CA1BDB0B53
:101190000FB6F894DEBF0FBECDBF19942A883988E8
:1011A00048885F846E847D848C849B84AA84B984FF
:1011B000C884DF80EE80FD800C811B81AA81B9810B
:1011C000CE0FD11D0FB6F894DEBF0FBECDBFED011F
:1011D0000895EE0FFF1F0590F491E02D19940790EC
:0A11E000F691E02D1994F894FFCF6A
:1011EA000A783A200000000000D901E0057B01AA34
:0611FA00018E01CE010090
:00000001FF
